{
  "_format": "hh-sol-artifact-1",
  "contractName": "NFT",
  "sourceName": "contracts/NFT.sol",
  "abi": [
    {
      "inputs": [],
      "stateMutability": "nonpayable",
      "type": "constructor"
    },
    {
      "anonymous": false,
      "inputs": [
        {
          "indexed": true,
          "internalType": "address",
          "name": "owner",
          "type": "address"
        },
        {
          "indexed": true,
          "internalType": "address",
          "name": "approved",
          "type": "address"
        },
        {
          "indexed": true,
          "internalType": "uint256",
          "name": "tokenId",
          "type": "uint256"
        }
      ],
      "name": "Approval",
      "type": "event"
    },
    {
      "anonymous": false,
      "inputs": [
        {
          "indexed": true,
          "internalType": "address",
          "name": "owner",
          "type": "address"
        },
        {
          "indexed": true,
          "internalType": "address",
          "name": "operator",
          "type": "address"
        },
        {
          "indexed": false,
          "internalType": "bool",
          "name": "approved",
          "type": "bool"
        }
      ],
      "name": "ApprovalForAll",
      "type": "event"
    },
    {
      "anonymous": false,
      "inputs": [
        {
          "indexed": true,
          "internalType": "address",
          "name": "previousOwner",
          "type": "address"
        },
        {
          "indexed": true,
          "internalType": "address",
          "name": "newOwner",
          "type": "address"
        }
      ],
      "name": "OwnershipTransferred",
      "type": "event"
    },
    {
      "anonymous": false,
      "inputs": [
        {
          "indexed": true,
          "internalType": "address",
          "name": "from",
          "type": "address"
        },
        {
          "indexed": true,
          "internalType": "address",
          "name": "to",
          "type": "address"
        },
        {
          "indexed": true,
          "internalType": "uint256",
          "name": "tokenId",
          "type": "uint256"
        }
      ],
      "name": "Transfer",
      "type": "event"
    },
    {
      "inputs": [
        {
          "internalType": "address",
          "name": "to",
          "type": "address"
        },
        {
          "internalType": "uint256",
          "name": "tokenId",
          "type": "uint256"
        }
      ],
      "name": "approve",
      "outputs": [],
      "stateMutability": "nonpayable",
      "type": "function"
    },
    {
      "inputs": [
        {
          "internalType": "address",
          "name": "owner",
          "type": "address"
        }
      ],
      "name": "balanceOf",
      "outputs": [
        {
          "internalType": "uint256",
          "name": "",
          "type": "uint256"
        }
      ],
      "stateMutability": "view",
      "type": "function"
    },
    {
      "inputs": [],
      "name": "baseExtension",
      "outputs": [
        {
          "internalType": "string",
          "name": "",
          "type": "string"
        }
      ],
      "stateMutability": "view",
      "type": "function"
    },
    {
      "inputs": [],
      "name": "baseURI",
      "outputs": [
        {
          "internalType": "string",
          "name": "",
          "type": "string"
        }
      ],
      "stateMutability": "view",
      "type": "function"
    },
    {
      "inputs": [],
      "name": "cost",
      "outputs": [
        {
          "internalType": "uint256",
          "name": "",
          "type": "uint256"
        }
      ],
      "stateMutability": "view",
      "type": "function"
    },
    {
      "inputs": [
        {
          "internalType": "uint256",
          "name": "tokenId",
          "type": "uint256"
        }
      ],
      "name": "getApproved",
      "outputs": [
        {
          "internalType": "address",
          "name": "",
          "type": "address"
        }
      ],
      "stateMutability": "view",
      "type": "function"
    },
    {
      "inputs": [
        {
          "internalType": "address",
          "name": "owner",
          "type": "address"
        },
        {
          "internalType": "address",
          "name": "operator",
          "type": "address"
        }
      ],
      "name": "isApprovedForAll",
      "outputs": [
        {
          "internalType": "bool",
          "name": "",
          "type": "bool"
        }
      ],
      "stateMutability": "view",
      "type": "function"
    },
    {
      "inputs": [],
      "name": "maxMintAmount",
      "outputs": [
        {
          "internalType": "uint256",
          "name": "",
          "type": "uint256"
        }
      ],
      "stateMutability": "view",
      "type": "function"
    },
    {
      "inputs": [],
      "name": "maxSupply",
      "outputs": [
        {
          "internalType": "uint256",
          "name": "",
          "type": "uint256"
        }
      ],
      "stateMutability": "view",
      "type": "function"
    },
    {
      "inputs": [
        {
          "internalType": "address",
          "name": "_to",
          "type": "address"
        },
        {
          "internalType": "uint256",
          "name": "_mintAmount",
          "type": "uint256"
        }
      ],
      "name": "mint",
      "outputs": [],
      "stateMutability": "payable",
      "type": "function"
    },
    {
      "inputs": [],
      "name": "name",
      "outputs": [
        {
          "internalType": "string",
          "name": "",
          "type": "string"
        }
      ],
      "stateMutability": "view",
      "type": "function"
    },
    {
      "inputs": [],
      "name": "owner",
      "outputs": [
        {
          "internalType": "address",
          "name": "",
          "type": "address"
        }
      ],
      "stateMutability": "view",
      "type": "function"
    },
    {
      "inputs": [
        {
          "internalType": "uint256",
          "name": "tokenId",
          "type": "uint256"
        }
      ],
      "name": "ownerOf",
      "outputs": [
        {
          "internalType": "address",
          "name": "",
          "type": "address"
        }
      ],
      "stateMutability": "view",
      "type": "function"
    },
    {
      "inputs": [
        {
          "internalType": "bool",
          "name": "_state",
          "type": "bool"
        }
      ],
      "name": "pause",
      "outputs": [],
      "stateMutability": "nonpayable",
      "type": "function"
    },
    {
      "inputs": [],
      "name": "paused",
      "outputs": [
        {
          "internalType": "bool",
          "name": "",
          "type": "bool"
        }
      ],
      "stateMutability": "view",
      "type": "function"
    },
    {
      "inputs": [],
      "name": "renounceOwnership",
      "outputs": [],
      "stateMutability": "nonpayable",
      "type": "function"
    },
    {
      "inputs": [
        {
          "internalType": "address",
          "name": "from",
          "type": "address"
        },
        {
          "internalType": "address",
          "name": "to",
          "type": "address"
        },
        {
          "internalType": "uint256",
          "name": "tokenId",
          "type": "uint256"
        }
      ],
      "name": "safeTransferFrom",
      "outputs": [],
      "stateMutability": "nonpayable",
      "type": "function"
    },
    {
      "inputs": [
        {
          "internalType": "address",
          "name": "from",
          "type": "address"
        },
        {
          "internalType": "address",
          "name": "to",
          "type": "address"
        },
        {
          "internalType": "uint256",
          "name": "tokenId",
          "type": "uint256"
        },
        {
          "internalType": "bytes",
          "name": "_data",
          "type": "bytes"
        }
      ],
      "name": "safeTransferFrom",
      "outputs": [],
      "stateMutability": "nonpayable",
      "type": "function"
    },
    {
      "inputs": [
        {
          "internalType": "address",
          "name": "operator",
          "type": "address"
        },
        {
          "internalType": "bool",
          "name": "approved",
          "type": "bool"
        }
      ],
      "name": "setApprovalForAll",
      "outputs": [],
      "stateMutability": "nonpayable",
      "type": "function"
    },
    {
      "inputs": [
        {
          "internalType": "string",
          "name": "_newBaseExtension",
          "type": "string"
        }
      ],
      "name": "setBaseExtension",
      "outputs": [],
      "stateMutability": "nonpayable",
      "type": "function"
    },
    {
      "inputs": [
        {
          "internalType": "string",
          "name": "_newBaseURI",
          "type": "string"
        }
      ],
      "name": "setBaseURI",
      "outputs": [],
      "stateMutability": "nonpayable",
      "type": "function"
    },
    {
      "inputs": [
        {
          "internalType": "uint256",
          "name": "_newmaxMintAmount",
          "type": "uint256"
        }
      ],
      "name": "setmaxMintAmount",
      "outputs": [],
      "stateMutability": "nonpayable",
      "type": "function"
    },
    {
      "inputs": [
        {
          "internalType": "bytes4",
          "name": "interfaceId",
          "type": "bytes4"
        }
      ],
      "name": "supportsInterface",
      "outputs": [
        {
          "internalType": "bool",
          "name": "",
          "type": "bool"
        }
      ],
      "stateMutability": "view",
      "type": "function"
    },
    {
      "inputs": [],
      "name": "symbol",
      "outputs": [
        {
          "internalType": "string",
          "name": "",
          "type": "string"
        }
      ],
      "stateMutability": "view",
      "type": "function"
    },
    {
      "inputs": [
        {
          "internalType": "uint256",
          "name": "index",
          "type": "uint256"
        }
      ],
      "name": "tokenByIndex",
      "outputs": [
        {
          "internalType": "uint256",
          "name": "",
          "type": "uint256"
        }
      ],
      "stateMutability": "view",
      "type": "function"
    },
    {
      "inputs": [
        {
          "internalType": "address",
          "name": "owner",
          "type": "address"
        },
        {
          "internalType": "uint256",
          "name": "index",
          "type": "uint256"
        }
      ],
      "name": "tokenOfOwnerByIndex",
      "outputs": [
        {
          "internalType": "uint256",
          "name": "",
          "type": "uint256"
        }
      ],
      "stateMutability": "view",
      "type": "function"
    },
    {
      "inputs": [
        {
          "internalType": "uint256",
          "name": "tokenId",
          "type": "uint256"
        }
      ],
      "name": "tokenURI",
      "outputs": [
        {
          "internalType": "string",
          "name": "",
          "type": "string"
        }
      ],
      "stateMutability": "view",
      "type": "function"
    },
    {
      "inputs": [],
      "name": "totalSupply",
      "outputs": [
        {
          "internalType": "uint256",
          "name": "",
          "type": "uint256"
        }
      ],
      "stateMutability": "view",
      "type": "function"
    },
    {
      "inputs": [
        {
          "internalType": "address",
          "name": "from",
          "type": "address"
        },
        {
          "internalType": "address",
          "name": "to",
          "type": "address"
        },
        {
          "internalType": "uint256",
          "name": "tokenId",
          "type": "uint256"
        }
      ],
      "name": "transferFrom",
      "outputs": [],
      "stateMutability": "nonpayable",
      "type": "function"
    },
    {
      "inputs": [
        {
          "internalType": "address",
          "name": "newOwner",
          "type": "address"
        }
      ],
      "name": "transferOwnership",
      "outputs": [],
      "stateMutability": "nonpayable",
      "type": "function"
    },
    {
      "inputs": [
        {
          "internalType": "address",
          "name": "_owner",
          "type": "address"
        }
      ],
      "name": "walletOfOwner",
      "outputs": [
        {
          "internalType": "uint256[]",
          "name": "",
          "type": "uint256[]"
        }
      ],
      "stateMutability": "view",
      "type": "function"
    },
    {
      "inputs": [],
      "name": "withdraw",
      "outputs": [],
      "stateMutability": "payable",
      "type": "function"
    }
  ],
  "bytecode": "0x60806040526040518060400160405280600581526020017f2e6a736f6e000000000000000000000000000000000000000000000000000000815250600c9080519060200190620000519291906200021e565b506000600d55600a600e556002600f556000601060006101000a81548160ff0219169083151502179055503480156200008957600080fd5b506040518060400160405280600681526020017f50756e6b656400000000000000000000000000000000000000000000000000008152506040518060400160405280600381526020017f504e4b000000000000000000000000000000000000000000000000000000000081525081600090805190602001906200010e9291906200021e565b508060019080519060200190620001279291906200021e565b5050506200014a6200013e6200015060201b60201c565b6200015860201b60201c565b62000333565b600033905090565b6000600a60009054906101000a900473ffffffffffffffffffffffffffffffffffffffff16905081600a60006101000a81548173ffffffffffffffffffffffffffffffffffffffff021916908373ffffffffffffffffffffffffffffffffffffffff1602179055508173ffffffffffffffffffffffffffffffffffffffff168173ffffffffffffffffffffffffffffffffffffffff167f8be0079c531659141344cd1fd0a4f28419497f9722a3daafe3b4186f6b6457e060405160405180910390a35050565b8280546200022c90620002ce565b90600052602060002090601f0160209004810192826200025057600085556200029c565b82601f106200026b57805160ff19168380011785556200029c565b828001600101855582156200029c579182015b828111156200029b5782518255916020019190600101906200027e565b5b509050620002ab9190620002af565b5090565b5b80821115620002ca576000816000905550600101620002b0565b5090565b60006002820490506001821680620002e757607f821691505b60208210811415620002fe57620002fd62000304565b5b50919050565b7f4e487b7100000000000000000000000000000000000000000000000000000000600052602260045260246000fd5b61410e80620003436000396000f3fe6080604052600436106101e35760003560e01c80635c975abb11610102578063a22cb46511610095578063d5abeb0111610064578063d5abeb01146106d8578063da3ef23f14610703578063e985e9c51461072c578063f2fde38b14610769576101e3565b8063a22cb4651461061e578063b88d4fde14610647578063c668286214610670578063c87b56dd1461069b576101e3565b8063715018a6116100d1578063715018a6146105885780637f00c7a61461059f5780638da5cb5b146105c857806395d89b41146105f3576101e3565b80635c975abb146104b85780636352211e146104e35780636c0360eb1461052057806370a082311461054b576101e3565b806323b872dd1161017a57806342842e0e1161014957806342842e0e146103ec578063438b6300146104155780634f6ccce71461045257806355f804b31461048f576101e3565b806323b872dd146103605780632f745c59146103895780633ccfd60b146103c657806340c10f19146103d0576101e3565b8063095ea7b3116101b6578063095ea7b3146102b657806313faede6146102df57806318160ddd1461030a578063239c70ae14610335576101e3565b806301ffc9a7146101e857806302329a291461022557806306fdde031461024e578063081812fc14610279575b600080fd5b3480156101f457600080fd5b5061020f600480360381019061020a9190612dff565b610792565b60405161021c91906133e2565b60405180910390f35b34801561023157600080fd5b5061024c60048036038101906102479190612dd6565b61080c565b005b34801561025a57600080fd5b506102636108a5565b60405161027091906133fd565b60405180910390f35b34801561028557600080fd5b506102a0600480360381019061029b9190612e92565b610937565b6040516102ad9190613359565b60405180910390f35b3480156102c257600080fd5b506102dd60048036038101906102d89190612d9a565b6109bc565b005b3480156102eb57600080fd5b506102f4610ad4565b604051610301919061367f565b60405180910390f35b34801561031657600080fd5b5061031f610ada565b60405161032c919061367f565b60405180910390f35b34801561034157600080fd5b5061034a610ae7565b604051610357919061367f565b60405180910390f35b34801561036c57600080fd5b5061038760048036038101906103829190612c94565b610aed565b005b34801561039557600080fd5b506103b060048036038101906103ab9190612d9a565b610b4d565b6040516103bd919061367f565b60405180910390f35b6103ce610bf2565b005b6103ea60048036038101906103e59190612d9a565b610cae565b005b3480156103f857600080fd5b50610413600480360381019061040e9190612c94565b610dd0565b005b34801561042157600080fd5b5061043c60048036038101906104379190612c2f565b610df0565b60405161044991906133c0565b60405180910390f35b34801561045e57600080fd5b5061047960048036038101906104749190612e92565b610eea565b604051610486919061367f565b60405180910390f35b34801561049b57600080fd5b506104b660048036038101906104b19190612e51565b610f81565b005b3480156104c457600080fd5b506104cd611017565b6040516104da91906133e2565b60405180910390f35b3480156104ef57600080fd5b5061050a60048036038101906105059190612e92565b61102a565b6040516105179190613359565b60405180910390f35b34801561052c57600080fd5b506105356110dc565b60405161054291906133fd565b60405180910390f35b34801561055757600080fd5b50610572600480360381019061056d9190612c2f565b61116a565b60405161057f919061367f565b60405180910390f35b34801561059457600080fd5b5061059d611222565b005b3480156105ab57600080fd5b506105c660048036038101906105c19190612e92565b6112aa565b005b3480156105d457600080fd5b506105dd611330565b6040516105ea9190613359565b60405180910390f35b3480156105ff57600080fd5b5061060861135a565b60405161061591906133fd565b60405180910390f35b34801561062a57600080fd5b5061064560048036038101906106409190612d5e565b6113ec565b005b34801561065357600080fd5b5061066e60048036038101906106699190612ce3565b61156d565b005b34801561067c57600080fd5b506106856115cf565b60405161069291906133fd565b60405180910390f35b3480156106a757600080fd5b506106c260048036038101906106bd9190612e92565b61165d565b6040516106cf91906133fd565b60405180910390f35b3480156106e457600080fd5b506106ed611707565b6040516106fa919061367f565b60405180910390f35b34801561070f57600080fd5b5061072a60048036038101906107259190612e51565b61170d565b005b34801561073857600080fd5b50610753600480360381019061074e9190612c58565b6117a3565b60405161076091906133e2565b60405180910390f35b34801561077557600080fd5b50610790600480360381019061078b9190612c2f565b611837565b005b60007f780e9d63000000000000000000000000000000000000000000000000000000007bffffffffffffffffffffffffffffffffffffffffffffffffffffffff1916827bffffffffffffffffffffffffffffffffffffffffffffffffffffffff1916148061080557506108048261192f565b5b9050919050565b610814611a11565b73ffffffffffffffffffffffffffffffffffffffff16610832611330565b73ffffffffffffffffffffffffffffffffffffffff1614610888576040517f08c379a000000000000000000000000000000000000000000000000000000000815260040161087f9061359f565b60405180910390fd5b80601060006101000a81548160ff02191690831515021790555050565b6060600080546108b49061397d565b80601f01602080910402602001604051908101604052809291908181526020018280546108e09061397d565b801561092d5780601f106109025761010080835404028352916020019161092d565b820191906000526020600020905b81548152906001019060200180831161091057829003601f168201915b5050505050905090565b600061094282611a19565b610981576040517f08c379a00000000000000000000000000000000000000000000000000000000081526004016109789061357f565b60405180910390fd5b6004600083815260200190815260200160002060009054906101000a900473ffffffffffffffffffffffffffffffffffffffff169050919050565b60006109c78261102a565b90508073ffffffffffffffffffffffffffffffffffffffff168373ffffffffffffffffffffffffffffffffffffffff161415610a38576040517f08c379a0000000000000000000000000000000000000000000000000000000008152600401610a2f906135ff565b60405180910390fd5b8073ffffffffffffffffffffffffffffffffffffffff16610a57611a11565b73ffffffffffffffffffffffffffffffffffffffff161480610a865750610a8581610a80611a11565b6117a3565b5b610ac5576040517f08c379a0000000000000000000000000000000000000000000000000000000008152600401610abc906134ff565b60405180910390fd5b610acf8383611a85565b505050565b600d5481565b6000600880549050905090565b600f5481565b610afe610af8611a11565b82611b3e565b610b3d576040517f08c379a0000000000000000000000000000000000000000000000000000000008152600401610b349061361f565b60405180910390fd5b610b48838383611c1c565b505050565b6000610b588361116a565b8210610b99576040517f08c379a0000000000000000000000000000000000000000000000000000000008152600401610b909061341f565b60405180910390fd5b600660008473ffffffffffffffffffffffffffffffffffffffff1673ffffffffffffffffffffffffffffffffffffffff168152602001908152602001600020600083815260200190815260200160002054905092915050565b610bfa611a11565b73ffffffffffffffffffffffffffffffffffffffff16610c18611330565b73ffffffffffffffffffffffffffffffffffffffff1614610c6e576040517f08c379a0000000000000000000000000000000000000000000000000000000008152600401610c659061359f565b60405180910390fd5b3373ffffffffffffffffffffffffffffffffffffffff166108fc479081150290604051600060405180830381858888f19350505050610cac57600080fd5b565b6000610cb8610ada565b9050601060009054906101000a900460ff1615610cd457600080fd5b60008211610ce157600080fd5b600f54821115610cf057600080fd5b600e548282610cff91906137b2565b1115610d0a57600080fd5b610d12611330565b73ffffffffffffffffffffffffffffffffffffffff163373ffffffffffffffffffffffffffffffffffffffff1614610d945781600d54610d529190613839565b3414610d93576040517f08c379a0000000000000000000000000000000000000000000000000000000008152600401610d8a9061365f565b60405180910390fd5b5b6000600190505b828111610dca57610db7848284610db291906137b2565b611e78565b8080610dc2906139e0565b915050610d9b565b50505050565b610deb8383836040518060200160405280600081525061156d565b505050565b60606000610dfd8361116a565b905060008167ffffffffffffffff811115610e41577f4e487b7100000000000000000000000000000000000000000000000000000000600052604160045260246000fd5b604051908082528060200260200182016040528015610e6f5781602001602082028036833780820191505090505b50905060005b82811015610edf57610e878582610b4d565b828281518110610ec0577f4e487b7100000000000000000000000000000000000000000000000000000000600052603260045260246000fd5b6020026020010181815250508080610ed7906139e0565b915050610e75565b508092505050919050565b6000610ef4610ada565b8210610f35576040517f08c379a0000000000000000000000000000000000000000000000000000000008152600401610f2c9061363f565b60405180910390fd5b60088281548110610f6f577f4e487b7100000000000000000000000000000000000000000000000000000000600052603260045260246000fd5b90600052602060002001549050919050565b610f89611a11565b73ffffffffffffffffffffffffffffffffffffffff16610fa7611330565b73ffffffffffffffffffffffffffffffffffffffff1614610ffd576040517f08c379a0000000000000000000000000000000000000000000000000000000008152600401610ff49061359f565b60405180910390fd5b80600b9080519060200190611013929190612a53565b5050565b601060009054906101000a900460ff1681565b6000806002600084815260200190815260200160002060009054906101000a900473ffffffffffffffffffffffffffffffffffffffff169050600073ffffffffffffffffffffffffffffffffffffffff168173ffffffffffffffffffffffffffffffffffffffff1614156110d3576040517f08c379a00000000000000000000000000000000000000000000000000000000081526004016110ca9061353f565b60405180910390fd5b80915050919050565b600b80546110e99061397d565b80601f01602080910402602001604051908101604052809291908181526020018280546111159061397d565b80156111625780601f1061113757610100808354040283529160200191611162565b820191906000526020600020905b81548152906001019060200180831161114557829003601f168201915b505050505081565b60008073ffffffffffffffffffffffffffffffffffffffff168273ffffffffffffffffffffffffffffffffffffffff1614156111db576040517f08c379a00000000000000000000000000000000000000000000000000000000081526004016111d29061351f565b60405180910390fd5b600360008373ffffffffffffffffffffffffffffffffffffffff1673ffffffffffffffffffffffffffffffffffffffff168152602001908152602001600020549050919050565b61122a611a11565b73ffffffffffffffffffffffffffffffffffffffff16611248611330565b73ffffffffffffffffffffffffffffffffffffffff161461129e576040517f08c379a00000000000000000000000000000000000000000000000000000000081526004016112959061359f565b60405180910390fd5b6112a86000611e96565b565b6112b2611a11565b73ffffffffffffffffffffffffffffffffffffffff166112d0611330565b73ffffffffffffffffffffffffffffffffffffffff1614611326576040517f08c379a000000000000000000000000000000000000000000000000000000000815260040161131d9061359f565b60405180910390fd5b80600f8190555050565b6000600a60009054906101000a900473ffffffffffffffffffffffffffffffffffffffff16905090565b6060600180546113699061397d565b80601f01602080910402602001604051908101604052809291908181526020018280546113959061397d565b80156113e25780601f106113b7576101008083540402835291602001916113e2565b820191906000526020600020905b8154815290600101906020018083116113c557829003601f168201915b5050505050905090565b6113f4611a11565b73ffffffffffffffffffffffffffffffffffffffff168273ffffffffffffffffffffffffffffffffffffffff161415611462576040517f08c379a0000000000000000000000000000000000000000000000000000000008152600401611459906134bf565b60405180910390fd5b806005600061146f611a11565b73ffffffffffffffffffffffffffffffffffffffff1673ffffffffffffffffffffffffffffffffffffffff16815260200190815260200160002060008473ffffffffffffffffffffffffffffffffffffffff1673ffffffffffffffffffffffffffffffffffffffff16815260200190815260200160002060006101000a81548160ff0219169083151502179055508173ffffffffffffffffffffffffffffffffffffffff1661151c611a11565b73ffffffffffffffffffffffffffffffffffffffff167f17307eab39ab6107e8899845ad3d59bd9653f200f220920489ca2b5937696c318360405161156191906133e2565b60405180910390a35050565b61157e611578611a11565b83611b3e565b6115bd576040517f08c379a00000000000000000000000000000000000000000000000000000000081526004016115b49061361f565b60405180910390fd5b6115c984848484611f5c565b50505050565b600c80546115dc9061397d565b80601f01602080910402602001604051908101604052809291908181526020018280546116089061397d565b80156116555780601f1061162a57610100808354040283529160200191611655565b820191906000526020600020905b81548152906001019060200180831161163857829003601f168201915b505050505081565b606061166882611a19565b6116a7576040517f08c379a000000000000000000000000000000000000000000000000000000000815260040161169e906135df565b60405180910390fd5b60006116b1611fb8565b905060008151116116d157604051806020016040528060008152506116ff565b806116db84611fd8565b600c6040516020016116ef93929190613328565b6040516020818303038152906040525b915050919050565b600e5481565b611715611a11565b73ffffffffffffffffffffffffffffffffffffffff16611733611330565b73ffffffffffffffffffffffffffffffffffffffff1614611789576040517f08c379a00000000000000000000000000000000000000000000000000000000081526004016117809061359f565b60405180910390fd5b80600c908051906020019061179f929190612a53565b5050565b6000600560008473ffffffffffffffffffffffffffffffffffffffff1673ffffffffffffffffffffffffffffffffffffffff16815260200190815260200160002060008373ffffffffffffffffffffffffffffffffffffffff1673ffffffffffffffffffffffffffffffffffffffff16815260200190815260200160002060009054906101000a900460ff16905092915050565b61183f611a11565b73ffffffffffffffffffffffffffffffffffffffff1661185d611330565b73ffffffffffffffffffffffffffffffffffffffff16146118b3576040517f08c379a00000000000000000000000000000000000000000000000000000000081526004016118aa9061359f565b60405180910390fd5b600073ffffffffffffffffffffffffffffffffffffffff168173ffffffffffffffffffffffffffffffffffffffff161415611923576040517f08c379a000000000000000000000000000000000000000000000000000000000815260040161191a9061345f565b60405180910390fd5b61192c81611e96565b50565b60007f80ac58cd000000000000000000000000000000000000000000000000000000007bffffffffffffffffffffffffffffffffffffffffffffffffffffffff1916827bffffffffffffffffffffffffffffffffffffffffffffffffffffffff191614806119fa57507f5b5e139f000000000000000000000000000000000000000000000000000000007bffffffffffffffffffffffffffffffffffffffffffffffffffffffff1916827bffffffffffffffffffffffffffffffffffffffffffffffffffffffff1916145b80611a0a5750611a0982612185565b5b9050919050565b600033905090565b60008073ffffffffffffffffffffffffffffffffffffffff166002600084815260200190815260200160002060009054906101000a900473ffffffffffffffffffffffffffffffffffffffff1673ffffffffffffffffffffffffffffffffffffffff1614159050919050565b816004600083815260200190815260200160002060006101000a81548173ffffffffffffffffffffffffffffffffffffffff021916908373ffffffffffffffffffffffffffffffffffffffff160217905550808273ffffffffffffffffffffffffffffffffffffffff16611af88361102a565b73ffffffffffffffffffffffffffffffffffffffff167f8c5be1e5ebec7d5bd14f71427d1e84f3dd0314c0f7b2291e5b200ac8c7c3b92560405160405180910390a45050565b6000611b4982611a19565b611b88576040517f08c379a0000000000000000000000000000000000000000000000000000000008152600401611b7f906134df565b60405180910390fd5b6000611b938361102a565b90508073ffffffffffffffffffffffffffffffffffffffff168473ffffffffffffffffffffffffffffffffffffffff161480611c0257508373ffffffffffffffffffffffffffffffffffffffff16611bea84610937565b73ffffffffffffffffffffffffffffffffffffffff16145b80611c135750611c1281856117a3565b5b91505092915050565b8273ffffffffffffffffffffffffffffffffffffffff16611c3c8261102a565b73ffffffffffffffffffffffffffffffffffffffff1614611c92576040517f08c379a0000000000000000000000000000000000000000000000000000000008152600401611c89906135bf565b60405180910390fd5b600073ffffffffffffffffffffffffffffffffffffffff168273ffffffffffffffffffffffffffffffffffffffff161415611d02576040517f08c379a0000000000000000000000000000000000000000000000000000000008152600401611cf99061349f565b60405180910390fd5b611d0d8383836121ef565b611d18600082611a85565b6001600360008573ffffffffffffffffffffffffffffffffffffffff1673ffffffffffffffffffffffffffffffffffffffff1681526020019081526020016000206000828254611d689190613893565b925050819055506001600360008473ffffffffffffffffffffffffffffffffffffffff1673ffffffffffffffffffffffffffffffffffffffff1681526020019081526020016000206000828254611dbf91906137b2565b92505081905550816002600083815260200190815260200160002060006101000a81548173ffffffffffffffffffffffffffffffffffffffff021916908373ffffffffffffffffffffffffffffffffffffffff160217905550808273ffffffffffffffffffffffffffffffffffffffff168473ffffffffffffffffffffffffffffffffffffffff167fddf252ad1be2c89b69c2b068fc378daa952ba7f163c4a11628f55a4df523b3ef60405160405180910390a4505050565b611e92828260405180602001604052806000815250612303565b5050565b6000600a60009054906101000a900473ffffffffffffffffffffffffffffffffffffffff16905081600a60006101000a81548173ffffffffffffffffffffffffffffffffffffffff021916908373ffffffffffffffffffffffffffffffffffffffff1602179055508173ffffffffffffffffffffffffffffffffffffffff168173ffffffffffffffffffffffffffffffffffffffff167f8be0079c531659141344cd1fd0a4f28419497f9722a3daafe3b4186f6b6457e060405160405180910390a35050565b611f67848484611c1c565b611f738484848461235e565b611fb2576040517f08c379a0000000000000000000000000000000000000000000000000000000008152600401611fa99061343f565b60405180910390fd5b50505050565b60606040518060600160405280603681526020016140a360369139905090565b60606000821415612020576040518060400160405280600181526020017f30000000000000000000000000000000000000000000000000000000000000008152509050612180565b600082905060005b6000821461205257808061203b906139e0565b915050600a8261204b9190613808565b9150612028565b60008167ffffffffffffffff811115612094577f4e487b7100000000000000000000000000000000000000000000000000000000600052604160045260246000fd5b6040519080825280601f01601f1916602001820160405280156120c65781602001600182028036833780820191505090505b5090505b60008514612179576001826120df9190613893565b9150600a856120ee9190613a29565b60306120fa91906137b2565b60f81b818381518110612136577f4e487b7100000000000000000000000000000000000000000000000000000000600052603260045260246000fd5b60200101907effffffffffffffffffffffffffffffffffffffffffffffffffffffffffffff1916908160001a905350600a856121729190613808565b94506120ca565b8093505050505b919050565b60007f01ffc9a7000000000000000000000000000000000000000000000000000000007bffffffffffffffffffffffffffffffffffffffffffffffffffffffff1916827bffffffffffffffffffffffffffffffffffffffffffffffffffffffff1916149050919050565b6121fa8383836124f5565b600073ffffffffffffffffffffffffffffffffffffffff168373ffffffffffffffffffffffffffffffffffffffff16141561223d57612238816124fa565b61227c565b8173ffffffffffffffffffffffffffffffffffffffff168373ffffffffffffffffffffffffffffffffffffffff161461227b5761227a8382612543565b5b5b600073ffffffffffffffffffffffffffffffffffffffff168273ffffffffffffffffffffffffffffffffffffffff1614156122bf576122ba816126b0565b6122fe565b8273ffffffffffffffffffffffffffffffffffffffff168273ffffffffffffffffffffffffffffffffffffffff16146122fd576122fc82826127f3565b5b5b505050565b61230d8383612872565b61231a600084848461235e565b612359576040517f08c379a00000000000000000000000000000000000000000000000000000000081526004016123509061343f565b60405180910390fd5b505050565b600061237f8473ffffffffffffffffffffffffffffffffffffffff16612a40565b156124e8578373ffffffffffffffffffffffffffffffffffffffff1663150b7a026123a8611a11565b8786866040518563ffffffff1660e01b81526004016123ca9493929190613374565b602060405180830381600087803b1580156123e457600080fd5b505af192505050801561241557506040513d601f19601f820116820180604052508101906124129190612e28565b60015b612498573d8060008114612445576040519150601f19603f3d011682016040523d82523d6000602084013e61244a565b606091505b50600081511415612490576040517f08c379a00000000000000000000000000000000000000000000000000000000081526004016124879061343f565b60405180910390fd5b805181602001fd5b63150b7a0260e01b7bffffffffffffffffffffffffffffffffffffffffffffffffffffffff1916817bffffffffffffffffffffffffffffffffffffffffffffffffffffffff1916149150506124ed565b600190505b949350505050565b505050565b6008805490506009600083815260200190815260200160002081905550600881908060018154018082558091505060019003906000526020600020016000909190919091505550565b600060016125508461116a565b61255a9190613893565b905060006007600084815260200190815260200160002054905081811461263f576000600660008673ffffffffffffffffffffffffffffffffffffffff1673ffffffffffffffffffffffffffffffffffffffff168152602001908152602001600020600084815260200190815260200160002054905080600660008773ffffffffffffffffffffffffffffffffffffffff1673ffffffffffffffffffffffffffffffffffffffff168152602001908152602001600020600084815260200190815260200160002081905550816007600083815260200190815260200160002081905550505b6007600084815260200190815260200160002060009055600660008573ffffffffffffffffffffffffffffffffffffffff1673ffffffffffffffffffffffffffffffffffffffff16815260200190815260200160002060008381526020019081526020016000206000905550505050565b600060016008805490506126c49190613893565b905060006009600084815260200190815260200160002054905060006008838154811061271a577f4e487b7100000000000000000000000000000000000000000000000000000000600052603260045260246000fd5b906000526020600020015490508060088381548110612762577f4e487b7100000000000000000000000000000000000000000000000000000000600052603260045260246000fd5b9060005260206000200181905550816009600083815260200190815260200160002081905550600960008581526020019081526020016000206000905560088054806127d7577f4e487b7100000000000000000000000000000000000000000000000000000000600052603160045260246000fd5b6001900381819060005260206000200160009055905550505050565b60006127fe8361116a565b905081600660008573ffffffffffffffffffffffffffffffffffffffff1673ffffffffffffffffffffffffffffffffffffffff168152602001908152602001600020600083815260200190815260200160002081905550806007600084815260200190815260200160002081905550505050565b600073ffffffffffffffffffffffffffffffffffffffff168273ffffffffffffffffffffffffffffffffffffffff1614156128e2576040517f08c379a00000000000000000000000000000000000000000000000000000000081526004016128d99061355f565b60405180910390fd5b6128eb81611a19565b1561292b576040517f08c379a00000000000000000000000000000000000000000000000000000000081526004016129229061347f565b60405180910390fd5b612937600083836121ef565b6001600360008473ffffffffffffffffffffffffffffffffffffffff1673ffffffffffffffffffffffffffffffffffffffff168152602001908152602001600020600082825461298791906137b2565b92505081905550816002600083815260200190815260200160002060006101000a81548173ffffffffffffffffffffffffffffffffffffffff021916908373ffffffffffffffffffffffffffffffffffffffff160217905550808273ffffffffffffffffffffffffffffffffffffffff16600073ffffffffffffffffffffffffffffffffffffffff167fddf252ad1be2c89b69c2b068fc378daa952ba7f163c4a11628f55a4df523b3ef60405160405180910390a45050565b600080823b905060008111915050919050565b828054612a5f9061397d565b90600052602060002090601f016020900481019282612a815760008555612ac8565b82601f10612a9a57805160ff1916838001178555612ac8565b82800160010185558215612ac8579182015b82811115612ac7578251825591602001919060010190612aac565b5b509050612ad59190612ad9565b5090565b5b80821115612af2576000816000905550600101612ada565b5090565b6000612b09612b04846136bf565b61369a565b905082815260208101848484011115612b2157600080fd5b612b2c84828561393b565b509392505050565b6000612b47612b42846136f0565b61369a565b905082815260208101848484011115612b5f57600080fd5b612b6a84828561393b565b509392505050565b600081359050612b8181614046565b92915050565b600081359050612b968161405d565b92915050565b600081359050612bab81614074565b92915050565b600081519050612bc081614074565b92915050565b600082601f830112612bd757600080fd5b8135612be7848260208601612af6565b91505092915050565b600082601f830112612c0157600080fd5b8135612c11848260208601612b34565b91505092915050565b600081359050612c298161408b565b92915050565b600060208284031215612c4157600080fd5b6000612c4f84828501612b72565b91505092915050565b60008060408385031215612c6b57600080fd5b6000612c7985828601612b72565b9250506020612c8a85828601612b72565b9150509250929050565b600080600060608486031215612ca957600080fd5b6000612cb786828701612b72565b9350506020612cc886828701612b72565b9250506040612cd986828701612c1a565b9150509250925092565b60008060008060808587031215612cf957600080fd5b6000612d0787828801612b72565b9450506020612d1887828801612b72565b9350506040612d2987828801612c1a565b925050606085013567ffffffffffffffff811115612d4657600080fd5b612d5287828801612bc6565b91505092959194509250565b60008060408385031215612d7157600080fd5b6000612d7f85828601612b72565b9250506020612d9085828601612b87565b9150509250929050565b60008060408385031215612dad57600080fd5b6000612dbb85828601612b72565b9250506020612dcc85828601612c1a565b9150509250929050565b600060208284031215612de857600080fd5b6000612df684828501612b87565b91505092915050565b600060208284031215612e1157600080fd5b6000612e1f84828501612b9c565b91505092915050565b600060208284031215612e3a57600080fd5b6000612e4884828501612bb1565b91505092915050565b600060208284031215612e6357600080fd5b600082013567ffffffffffffffff811115612e7d57600080fd5b612e8984828501612bf0565b91505092915050565b600060208284031215612ea457600080fd5b6000612eb284828501612c1a565b91505092915050565b6000612ec7838361330a565b60208301905092915050565b612edc816138c7565b82525050565b6000612eed82613746565b612ef78185613774565b9350612f0283613721565b8060005b83811015612f33578151612f1a8882612ebb565b9750612f2583613767565b925050600181019050612f06565b5085935050505092915050565b612f49816138d9565b82525050565b6000612f5a82613751565b612f648185613785565b9350612f7481856020860161394a565b612f7d81613b16565b840191505092915050565b6000612f938261375c565b612f9d8185613796565b9350612fad81856020860161394a565b612fb681613b16565b840191505092915050565b6000612fcc8261375c565b612fd681856137a7565b9350612fe681856020860161394a565b80840191505092915050565b60008154612fff8161397d565b61300981866137a7565b94506001821660008114613024576001811461303557613068565b60ff19831686528186019350613068565b61303e85613731565b60005b8381101561306057815481890152600182019150602081019050613041565b838801955050505b50505092915050565b600061307e602b83613796565b915061308982613b27565b604082019050919050565b60006130a1603283613796565b91506130ac82613b76565b604082019050919050565b60006130c4602683613796565b91506130cf82613bc5565b604082019050919050565b60006130e7601c83613796565b91506130f282613c14565b602082019050919050565b600061310a602483613796565b915061311582613c3d565b604082019050919050565b600061312d601983613796565b915061313882613c8c565b602082019050919050565b6000613150602c83613796565b915061315b82613cb5565b604082019050919050565b6000613173603883613796565b915061317e82613d04565b604082019050919050565b6000613196602a83613796565b91506131a182613d53565b604082019050919050565b60006131b9602983613796565b91506131c482613da2565b604082019050919050565b60006131dc602083613796565b91506131e782613df1565b602082019050919050565b60006131ff602c83613796565b915061320a82613e1a565b604082019050919050565b6000613222602083613796565b915061322d82613e69565b602082019050919050565b6000613245602983613796565b915061325082613e92565b604082019050919050565b6000613268602f83613796565b915061327382613ee1565b604082019050919050565b600061328b602183613796565b915061329682613f30565b604082019050919050565b60006132ae603183613796565b91506132b982613f7f565b604082019050919050565b60006132d1602c83613796565b91506132dc82613fce565b604082019050919050565b60006132f4601883613796565b91506132ff8261401d565b602082019050919050565b61331381613931565b82525050565b61332281613931565b82525050565b60006133348286612fc1565b91506133408285612fc1565b915061334c8284612ff2565b9150819050949350505050565b600060208201905061336e6000830184612ed3565b92915050565b60006080820190506133896000830187612ed3565b6133966020830186612ed3565b6133a36040830185613319565b81810360608301526133b58184612f4f565b905095945050505050565b600060208201905081810360008301526133da8184612ee2565b905092915050565b60006020820190506133f76000830184612f40565b92915050565b600060208201905081810360008301526134178184612f88565b905092915050565b6000602082019050818103600083015261343881613071565b9050919050565b6000602082019050818103600083015261345881613094565b9050919050565b60006020820190508181036000830152613478816130b7565b9050919050565b60006020820190508181036000830152613498816130da565b9050919050565b600060208201905081810360008301526134b8816130fd565b9050919050565b600060208201905081810360008301526134d881613120565b9050919050565b600060208201905081810360008301526134f881613143565b9050919050565b6000602082019050818103600083015261351881613166565b9050919050565b6000602082019050818103600083015261353881613189565b9050919050565b60006020820190508181036000830152613558816131ac565b9050919050565b60006020820190508181036000830152613578816131cf565b9050919050565b60006020820190508181036000830152613598816131f2565b9050919050565b600060208201905081810360008301526135b881613215565b9050919050565b600060208201905081810360008301526135d881613238565b9050919050565b600060208201905081810360008301526135f88161325b565b9050919050565b600060208201905081810360008301526136188161327e565b9050919050565b60006020820190508181036000830152613638816132a1565b9050919050565b60006020820190508181036000830152613658816132c4565b9050919050565b60006020820190508181036000830152613678816132e7565b9050919050565b60006020820190506136946000830184613319565b92915050565b60006136a46136b5565b90506136b082826139af565b919050565b6000604051905090565b600067ffffffffffffffff8211156136da576136d9613ae7565b5b6136e382613b16565b9050602081019050919050565b600067ffffffffffffffff82111561370b5761370a613ae7565b5b61371482613b16565b9050602081019050919050565b6000819050602082019050919050565b60008190508160005260206000209050919050565b600081519050919050565b600081519050919050565b600081519050919050565b6000602082019050919050565b600082825260208201905092915050565b600082825260208201905092915050565b600082825260208201905092915050565b600081905092915050565b60006137bd82613931565b91506137c883613931565b9250827fffffffffffffffffffffffffffffffffffffffffffffffffffffffffffffffff038211156137fd576137fc613a5a565b5b828201905092915050565b600061381382613931565b915061381e83613931565b92508261382e5761382d613a89565b5b828204905092915050565b600061384482613931565b915061384f83613931565b9250817fffffffffffffffffffffffffffffffffffffffffffffffffffffffffffffffff048311821515161561388857613887613a5a565b5b828202905092915050565b600061389e82613931565b91506138a983613931565b9250828210156138bc576138bb613a5a565b5b828203905092915050565b60006138d282613911565b9050919050565b60008115159050919050565b60007fffffffff0000000000000000000000000000000000000000000000000000000082169050919050565b600073ffffffffffffffffffffffffffffffffffffffff82169050919050565b6000819050919050565b82818337600083830152505050565b60005b8381101561396857808201518184015260208101905061394d565b83811115613977576000848401525b50505050565b6000600282049050600182168061399557607f821691505b602082108114156139a9576139a8613ab8565b5b50919050565b6139b882613b16565b810181811067ffffffffffffffff821117156139d7576139d6613ae7565b5b80604052505050565b60006139eb82613931565b91507fffffffffffffffffffffffffffffffffffffffffffffffffffffffffffffffff821415613a1e57613a1d613a5a565b5b600182019050919050565b6000613a3482613931565b9150613a3f83613931565b925082613a4f57613a4e613a89565b5b828206905092915050565b7f4e487b7100000000000000000000000000000000000000000000000000000000600052601160045260246000fd5b7f4e487b7100000000000000000000000000000000000000000000000000000000600052601260045260246000fd5b7f4e487b7100000000000000000000000000000000000000000000000000000000600052602260045260246000fd5b7f4e487b7100000000000000000000000000000000000000000000000000000000600052604160045260246000fd5b6000601f19601f8301169050919050565b7f455243373231456e756d657261626c653a206f776e657220696e646578206f7560008201527f74206f6620626f756e6473000000000000000000000000000000000000000000602082015250565b7f4552433732313a207472616e7366657220746f206e6f6e20455243373231526560008201527f63656976657220696d706c656d656e7465720000000000000000000000000000602082015250565b7f4f776e61626c653a206e6577206f776e657220697320746865207a65726f206160008201527f6464726573730000000000000000000000000000000000000000000000000000602082015250565b7f4552433732313a20746f6b656e20616c7265616479206d696e74656400000000600082015250565b7f4552433732313a207472616e7366657220746f20746865207a65726f2061646460008201527f7265737300000000000000000000000000000000000000000000000000000000602082015250565b7f4552433732313a20617070726f766520746f2063616c6c657200000000000000600082015250565b7f4552433732313a206f70657261746f7220717565727920666f72206e6f6e657860008201527f697374656e7420746f6b656e0000000000000000000000000000000000000000602082015250565b7f4552433732313a20617070726f76652063616c6c6572206973206e6f74206f7760008201527f6e6572206e6f7220617070726f76656420666f7220616c6c0000000000000000602082015250565b7f4552433732313a2062616c616e636520717565727920666f7220746865207a6560008201527f726f206164647265737300000000000000000000000000000000000000000000602082015250565b7f4552433732313a206f776e657220717565727920666f72206e6f6e657869737460008201527f656e7420746f6b656e0000000000000000000000000000000000000000000000602082015250565b7f4552433732313a206d696e7420746f20746865207a65726f2061646472657373600082015250565b7f4552433732313a20617070726f76656420717565727920666f72206e6f6e657860008201527f697374656e7420746f6b656e0000000000000000000000000000000000000000602082015250565b7f4f776e61626c653a2063616c6c6572206973206e6f7420746865206f776e6572600082015250565b7f4552433732313a207472616e73666572206f6620746f6b656e2074686174206960008201527f73206e6f74206f776e0000000000000000000000000000000000000000000000602082015250565b7f4552433732314d657461646174613a2055524920717565727920666f72206e6f60008201527f6e6578697374656e7420746f6b656e0000000000000000000000000000000000602082015250565b7f4552433732313a20617070726f76616c20746f2063757272656e74206f776e6560008201527f7200000000000000000000000000000000000000000000000000000000000000602082015250565b7f4552433732313a207472616e736665722063616c6c6572206973206e6f74206f60008201527f776e6572206e6f7220617070726f766564000000000000000000000000000000602082015250565b7f455243373231456e756d657261626c653a20676c6f62616c20696e646578206f60008201527f7574206f6620626f756e64730000000000000000000000000000000000000000602082015250565b7f4e65656420746f2073656e6420302e3030206574686572210000000000000000600082015250565b61404f816138c7565b811461405a57600080fd5b50565b614066816138d9565b811461407157600080fd5b50565b61407d816138e5565b811461408857600080fd5b50565b61409481613931565b811461409f57600080fd5b5056fe697066733a2f2f516d4e51696e774a6838567445577364383473755a7a78503866446a52583948584a4b4a36776b504b6a724356702fa2646970667358221220166469a00e80a63939e7a3584b70cff7a892e434e5e57e45a02511ab65435afd64736f6c63430008040033",
  "linkReferences": {},
  "deployedLinkReferences": {}
}